:10160600FF7F3F1F0F07030100FFFEFCF8F0E0C05D
:101616008000FF7FBFDFEFF7FBFDFE000103070F32
:0D1626001F3F7FFF0080C0E0F0F8FCFEFFDA
:061699000110FF010E002C
:0B159E0075B0FF75A0FF7590FF7FFF88
:0215A900AD078C
:1015AB00E4FB74807E00A803088006CEA2E713CE6E
:1015BB0013D8F8FFEDF582EF558224FF9280C2819C
:0A15CB00D2810BBB08DCC282D28281
:0115D50022F3
:0E168B00E4F5B0F5A0F590F580AF0E0215A9BC
:0F167C00AF108FB08FA08F908F80AF100215A985
:10163300E4FF1215A9C287C286E4F5907F207E03DA
:1016430012165C12167CC286C285E4F5B0F5A07F43
:09165300207E0312165C02167CD5
:021289008F0ACA
:10128B00E4F50BE50BC3950A503A7FAA1215A97525
:10129B00B0AA75A0AA7590AAD287D285C2867F966E
:1012AB007E0012165C7F551215A975B05575A055A9
:1012BB00759055C287C285D2867F967E0012165CCA
:0A12CB00050B80BFD287D286D285C2
:0112D50022F6
:1005ED00AF108FB08FA08F90AF101215A9D287D2F8
:1005FD0086D285750A01AF0AEF3395E0FE74062F9A
:10060D00F58274163EF583E493F5907F4B7E0012D0
:10061D00165CD3E50A648094834002C285050AC343
:10062D00E50A6480948940CE750A01AF0AEF3395CF
:10063D00E0FE74062FF58274163EF583E493FF12E7
:10064D0015A97F4B7E0012165CD3E50A6480948356
:10065D004006D285D287C286050AC3E50A64809416
:10066D008940C8750A01AF0AEF3395E0FE74062F75
:10067D00F58274163EF583E493F5A07F4B7E001250
:10068D00165CD3E50A648094834006D286D285C277
:10069D0087050AC3E50A6480948940CA750A01AFCB
:1006AD000AEF3395E0FE74062FF58274163EF5833E
:1006BD00E493F5B0C3E50A6480948850077F4B7EC0
:1006CD000012165CD3E50A648094834006D287D26B
:0E06DD0086D285050AC3E50A6480948940C16F
:0106EB0022EC
:1004D500E4F5B0F5A0F590FF1215A9D287D286D222
:1004E50085750A08AF0AEF3395E0FE740F2FF58284
:1004F50074163EF583E493F590D3E50A6480948001
:1005050040077F4B7E0012165CC3E50A6480948524
:100515005002C287150AC3E50A6480948050C575E8
:100525000A08AF0AEF3395E0FE740F2FF5827416B3
:100535003EF583E493FF1215A9D3E50A6480948000
:1005450040077F4B7E0012165CC3E50A64809485E4
:100555005006D285D287C286150AC3E50A648094FF
:100565008050BF750A08AF0AEF3395E0FE740F2F70
:10057500F58274163EF583E493F5A0D3E50A64800D
:10058500948040077F4B7E0012165CC3E50A6480A9
:1005950094855006D287D286C285150AC3E50A64BA
:1005A50080948050C1750A08AF0AEF3395E0FE7458
:1005B5000F2FF58274163EF583E493F5B0D3E50A63
:1005C5006480948040077F4B7E0012165CC3E50A69
:1005D500648094855006D287D286D285150AC3E5F4
:0705E5000A6480948050C1FC
:0105EC0022EC
:1006EC0012159E750A01AF0AEF3395E0FE740F2FB9
:1006FC00F58274163EF583E493F5B0D3E50A648075
:10070C00948040077F4B7E0012165CD3E50A648010
:10071C0094834006C286C285D287050AC3E50A6463
:10072C0080948940C1750A01AF0AEF3395E0FE74DD
:10073C000F2FF58274163EF583E493F5A07F4B7E64
:10074C000012165CD3E50A648094834006D285C2FD
:10075C0087C286050AC3E50A6480948940CA750A73
:10076C0001AF0AEF3395E0FE740F2FF58274163E3D
:10077C00F583E493FF1215A97F4B7E0012165CD310
:10078C00E50A648094834006C286C285D287050A36
:10079C00C3E50A6480948940C8750A01AF0AEF3337
:1007AC0095E0FE740F2FF58274163EF583E493F5F5
:1007BC0090C3E50A6480948850077F4B7E00121624
:1007CC005CD3E50A648094834006D285C287C286D6
:0B07DC00050AC3E50A6480948940C14F
:0107E70022EF
:1003B900E4F5B0F5A0F590FF1215A9750A08AF0A82
:1003C900EF3395E0FE74062FF58274163EF583E44B
:1003D90093F5B0D3E50A6480948040077F4B7E0093
:1003E90012165CC3E50A648094855006C286C285EC
:1003F900D287150AC3E50A6480948050C1750A083A
:10040900AF0AEF3395E0FE74062FF58274163EF5B8
:1004190083E493F5A0D3E50A6480948040077F4B79
:100429007E0012165CC3E50A648094855006D28565
:10043900C287C286150AC3E50A6480948050C175D3
:100449000A08AF0AEF3395E0FE74062FF582741699
:100459003EF583E493FF1215A9D3E50A64809480DD
:1004690040077F4B7E0012165CC3E50A64809485C1
:100479005006C286C285D287150AC3E50A648094EC
:100489008050BF750A08AF0AEF3395E0FE74062F56
:10049900F58274163EF583E493F590D3E50A6480FA
:1004A900948040077F4B7E0012165CC3E50A648086
:1004B90094855006D285C287C286150AC3E50A64A7
:0B04C90080948050C1D287D286D2857B
:0104D4002205
:1013B00012159ED287D286D285E4F50AAF0AEF33A2
:1013C00095E0FE74062FF58274163EF583E493FFD4
:1013D000F5B0F5A0F5901215A97F4B7E0012165CB2
:1013E000050AC3E50A6480948940D1C287C286C2D7
:0113F0008577
:0113F10022D9
:10156500750A08AF0AEF3395E0FE740F2FF5827404
:10157500163EF583E493FFF5B0F5A0F5901215A995
:101585007F4B7E0012165C150AC3E50A64809480C1
:0815950050D1D287D286D28525
:01159D00222B
:1015D600D287D286D285750A01E50A90160F93FF47
:1015E600F5B0F5A0F5901215A97F4B7E0012165C9A
:0F15F600050AE50AC3940940E0C287C286C28590
:0116050022C2
:1013F200750A08AF0AEF3395E0FE74062FF5827482
:10140200163EF583E493FFF5B0F5A0F5901215A909
:10141200C3E50A6480948040077F4B7E0012165C0D
:10142200150AC3E50A6480948050C8D287D286D256
:011432008534
:011433002296
:10136C00750BFFE4F50AE50BC313F50BE50AC39403
:10137C0008500D7F4B7E0012165CAF0B8FA08F9028
:10138C00E50AD394034006D286D285C287E50AD3F8
:10139C0094064006D285C287C286050AE50AD39414
:0313AC000840C333
:0113AF00221B
:1010F300750BFFE4F50AE50BC313F50BE50AC3947F
:1011030008500F7F4B7E0012165C850BB0AF0B129D
:1011130015A9E50AD394034006C287C286C285E5B2
:101123000AD394054006D287D286D285E50AD394A2
:10113300074006C287C286C285050AE50AD394081A
:0211430040B4B6
:011145002287
:1012D600750A08AF0AEF3395E0FE740F2FF5827496
:1012E600163EF583E493F5A0F5907F4B7E0012162B
:1012F6005CC3E50A648094855006D286D285C2878F
:10130600C3E50A648094835006D285C287C28615D7
:0A1316000AC3E50A6480948050B910
:0113200022AA
:100F2800750A08AF0AEF3395E0FE740F2FF5827447
:100F3800163EF583E493FFF5B01215A9C3E50A64DC
:100F480080948850077F4B7E0012165CC3E50A64C4
:100F58008094875006C287C286C285C3E50A64802A
:100F680094845006D287D286D285C3E50A648094D9
:100F7800815006C287C286C285150AC3E50A648005
:040F88009480509F62
:010F8C002242
:10123B00750BFFE4F50AE50B25E0F50BC3E50A6436
:10124B00809488500F7F4B7E0012165C850BB0AFDD
:10125B000B1215A9D3E50A648094824006C285D28D
:10126B0087D286D3E50A648094854006C286C28500
:0D127B00D287050AD3E50A6480948840B943
:011288002243
:100FE900750BFFE4F50AE50B25E0F50BC3E50A648B
:100FF900809488500D7F4B7E0012165CAF0B8FA03A
:101009008F90D3E50A648094834006C287C286C262
:1010190085D3E50A648094854006D287D286D28535
:10102900D3E50A648094874006C287C286C28505D3
:0A1039000AD3E50A6480948840ACF5
:01104300228A
:10132100750A08AF0AEF3395E0FE74062FF5827453
:10133100163EF583E493F5A0F5907F4B7E001216DF
:101341005CC3E50A648094855006C285D287D28643
:10135100C3E50A648094835006C286C285D287158C
:0A1361000AC3E50A6480948050B9C5
:01136B00225F
:100F8D00750A08AF0AEF3395E0FE74062FF58274EB
:100F9D00163EF583E493FFF5B01215A97F4B7E0045
:100FAD0012165CC3E50A648094875006C287C28618
:100FBD00C285C3E50A648094845006D287D286D256
:100FCD0085C3E50A648094815006C287C286C285B6
:0B0FDD00150AC3E50A6480948050A848
:010FE80022E6
:1011EA00D287D286D285750A01E50A90161893FF2E
:1011FA00F5B0F5A0F5901215A97F4B7E0012165C8A
:10120A00E50AD394014006C285D287D286E50AD37D
:10121A0094034006D287D285C286E50AD394054054
:10122A0006D286D285C287050AE50AC3940940B95F
:01123A002291
:100EC200D287D286D285750A08AF0AEF3395E0FE43
:100ED20074182FF58274163EF583E493FFF5B0F58E
:100EE200A0F5901215A97F4B7E0012165CC3E50A8D
:100EF200648094875006C285D287D286C3E50A648D
:100F02008094855006D287D285C286C3E50A648062
:100F120094845006D286D285C287150AD3E50A6424
:050F220080948050A442
:010F270022A7
:1010440012159EC287C286C285750A01E50A9016EA
:101054000693F590E50A90160F93F5B07F4B7E004A
:1010640012165C050AE50AC3940940E0D286750AA3
:1010740001E50A90160693FF1215A9E50A90160FCA
:1010840093F5A07F4B7E0012165C050AE50AC39413
:091094000940DEC286D287D28534
:01109D002230
:100A9200750A08AF0AEF3395E0FE740F2FF58274E2
:100AA200163EF583E493F59074062FF58274163E94
:100AB200F583E493F5B07F4B7E0012165C150AC3F2
:100AC200E50A6480948050CBC287C285D286750ABB
:100AD20008AF0AEF3395E0FE740F2FF58274163ECD
:100AE200F583E493FF1215A9AF0AEF3395E0FE7484
:100AF200062FF58274163EF583E493F5A07F4B7EB4
:0F0B02000012165C150AC3E50A6480948050C285
:010B110022C1
:1011460012159EC287C286C285750A01E50A9016E7
:101156000F93FF1215A9E50A90160693F5A07F4B8B
:101166007E0012165C050AE50AC3940940DE750A7C
:1011760001E50A90160F93F590E50A90160693F589
:10118600B07F4B7E0012165C050AE50AC39409403F
:01119600E078
:011197002235
:10109E00C287C286C285E4F50AE50A90162193FF3F
:1010AE001215A9E50A90162A93F5A07F4B7E001221
:1010BE00165C050AE50AC3940940DEE4F50AE50A62
:1010CE0090162193F590E50A90162A93F5B07F4B72
:1010DE007E0012165C050AE50AC3940940E0D28729
:0410EE00D286D2854F
:0110F20022DB
:1008740012159EC287C286C285750A01AF0AEF337C
:1008840095E0FE74062FF58274163EF583E493F525
:10089400B0740F2FF58274163EF583E493F5A07FB0
:1008A4004B7E0012165C050AC3E50A6480948940F5
:1008B400CB750A01AF0AEF3395E0FE740F2FF58272
:1008C40074163EF583E493FF1215A9AF0AEF33952E
:1008D400E0FE74062FF58274163EF583E493F590DA
:1008E4007F4B7E0012165C050AC3E50A6480948976
:0808F40040C2D287D286D285F2
:0108FC0022D9
:10098600C287C286C285750A01AF0AEF3395E0FEBB
:10099600742A2FF58274163EF583E493F5B074211C
:1009A6002FF58274163EF583E493F5A07F4B7E0007
:1009B60012165C050AC3E50A6480948940CB750A61
:1009C60001AF0AEF3395E0FE74212FF58274163ECF
:1009D600F583E493FF1215A9AF0AEF3395E0FE7491
:1009E6002A2FF58274163EF583E493F5907F4B7EAD
:1009F6000012165C050AC3E50A6480948940C2D2D7
:050A060087D286D285B5
:010A0B0022C8
:1008FD0012159EC287C286C285750A01AF0AEF33F3
:10090D0095E0FE74062FF58274163EF583E493FF91
:10091D001215A9AF0AEF3395E0FE740F2FF582740F
:10092D00163EF583E493F5907F4B7E0012165C0521
:10093D000AC3E50A6480948940C2750A01AF0AEFC3
:10094D003395E0FE74062FF58274163EF583E4931D
:10095D00F5A0740F2FF58274163EF583E493F5B070
:10096D007F4B7E0012165C050AC3E50A64809489EC
:08097D0040CBD287D286D2855F
:01098500224F
:100A0C00C287C286C285750A01AF0AEF3395E0FE34
:100A1C00742A2FF58274163EF583E493FF1215A900
:100A2C00AF0AEF3395E0FE74212FF58274163EF574
:100A3C0083E493F5907F4B7E0012165C050AC3E5A8
:100A4C000A6480948940C2750A01AF0AEF3395E0BD
:100A5C00FE742A2FF58274163EF583E493F5A07488
:100A6C00212FF58274163EF583E493F5B07F4B7E0F
:100A7C000012165C050AC3E50A6480948940CBD247
:050A8C0087D286D2852F
:010A91002242
:0B119800E4F5B0F5A0F590FF1215A9DA
:1011A300750B01C287C286C2857F011215A9E4F5BA
:1011B3000AE50B25E0F50B7F4B7E0012165CAF0BA7
:1011C3001215A9E50AD394024006C286C285D287C6
:1011D300E50AD394064006C287C285D286050AE58E
:0611E3000AC3940840CB92
:0111E90022E3
:10143400750B01759001E4F50AE50B25E0F50B7FCA
:101444004B7E0012165C850B90E50AD3940240068D
:10145400D285C287C286E50AD394064006C286C2F4
:0C14640085D287050AE50AC3940840CD34
:011470002259
:10147100750B0175A001E4F50AE50B25E0F50B7F7D
:101481004B7E0012165C850BA0E50AD39402400640
:10149100C287C285D286E50AD394064006D285C2A8
:0C14A10087C286050AE50AC3940840CD06
:0114AD00221C
:1014AE00750B0175B001E4F50AE50B25E0F50B7F30
:1014BE004B7E0012165C850BB0E50AD394024006F3
:1014CE00C286C285D287E50AD394064006C287C279
:0C14DE0085D286050AE50AC3940840CDBB
:0114EA0022DF
:100D0600750BFF750CFFE4F50AE50CC313F50C7FB4
:100D16004B7E0012165CE50AD394024006D287D2B7
:100D260086D285E50AD394044006C287C286C28568
:100D3600E50AD394064006D287D286D285E50AD341
:100D460094084006C287C286C285AF0C1215A9E573
:100D56000B25E0F50BE50AC3940850077F4B7E0090
:0F0D660012165C850BA0050AE50AD39408409A83
:010D7500225B
:100DE600750BFF750CFFE4F50AE50CC313F50C7FD4
:100DF6004B7E0012165CE50AD394024006D287D2D7
:100E060086D285E50AD394044006C287C286C28587
:100E1600E50AD394064006D287D286D285E50AD360
:100E260094084006C287C286C285850C90E50B25CC
:100E3600E0F50BE50AC3940850077F4B7E001216B7
:0D0E46005C850BB0050AE50AD39408409CBA
:010E5300227C
:100B1200750B80E4F50CF50AE50BA2E713F50B7FE4
:100B22004B7E0012165CD3E50A648094824006D2A2
:100B320087D286D285D3E50A648094844006C28730
:100B4200C286C285D3E50A648094864006D287D2E3
:100B520086D285D3E50A648094884006C287C2861D
:100B6200C285AF0B1215A9E50C25E04401F50CC3B3
:100B7200E50A6480948850077F4B7E0012165C85DC
:0D0B82000CA0050AD3E50A64809488408B1E
:010B8F002243
:100C0E00750B80E4F50CF50AE50BA2E713F50B7FE7
:100C1E004B7E0012165CD3E50A648094824006D2A5
:100C2E0087D286D285D3E50A648094844006C28733
:100C3E00C286C285D3E50A648094864006D287D2E6
:100C4E0086D285D3E50A648094884006C287C28620
:100C5E00C285850B90E50C25E04401F50CC3E50A31
:100C6E006480948850077F4B7E0012165C850CB012
:0B0C7E00050AD3E50A64809488408DCD
:010C89002248
:100D7600750BFF750CFFE4F50AE50CC313F50C7F44
:100D86004B7E0012165CE50AD394024006D287D247
:100D960086D285E50AD394044006C287C286C285F8
:100DA600E50AD394064006D287D286D285E50AD3D1
:100DB60094084006C287C286C285850CA0E50B252D
:100DC600E0F50BE50AC3940850077F4B7E00121628
:0F0DD6005CAF0B1215A9050AE50AD39408409AE1
:010DE50022EB
:100E5400750BFF750CFFE4F50AE50CC313F50C7F65
:100E64004B7E0012165CE50AD394024006D287D268
:100E740086D285E50AD394044006C287C286C28519
:100E8400E50AD394064006D287D286D285E50AD3F2
:100E940094084006C287C286C285850CB0E50B253E
:100EA400E0F50BE50AC3940850077F4B7E00121649
:0D0EB4005C850B90050AE50AD39408409C6C
:010EC100220E
:100B9000750B80E4F50CF50AE50BA2E713F50B7F66
:100BA0004B7E0012165CD3E50A648094824006D224
:100BB00087D286D285D3E50A648094844006C287B2
:100BC000C286C285D3E50A648094864006D287D265
:100BD00086D285D3E50A648094884006C287C2869F
:100BE000C285850BA0E50C25E04401F50CC3E50AA0
:100BF0006480948850077F4B7E0012165CAF0C1205
:0D0C000015A9050AD3E50A64809488408B8D
:010C0D0022C4
:100C8A00750B80E4F50CF50AE50BA2E713F50B7F6B
:100C9A004B7E0012165CD3E50A648094824006D229
:100CAA0087D286D285D3E50A648094844006C287B7
:100CBA00C286C285D3E50A648094864006D287D26A
:100CCA0086D285D3E50A648094884006C287C286A4
:100CDA00C285850BB0E50C25E04401F50CC3E50A95
:100CEA006480948850077F4B7E0012165C850C90B6
:0B0CFA00050AD3E50A64809488408D51
:010D050022CB
:1014EB00750B01750CFFE4F50AE50B25E04401F5DE
:1014FB000B7F237E0012165CAF0B8FA08F90E50C39
:10150B0025E0F50C7F237E0012165C850CB0AF0C2A
:0C151B001215A9050AE50AC3940840CD8A
:0115270022A1
:10152800750B01750CFFE4F50AE50B25E04401F5A0
:101538000B7F237E0012165C850BB0AF0B1215A92A
:10154800E50C25E0F50C7F237E0012165CAF0C8FAE
:0C155800A08F90050AE50AC3940840CD5E
:011564002264
:1000030012167C12168B7F207E0312165C12167C4E
:100013001216331216337F061212891205ED7F4B27
:100023007E0012165C1204D57F4B7E0012165C1202
:10003300167C1206EC7F4B7E0012165C1203B97F0E
:100043004B7E0012165C12167C12136C1210F37F97
:100053004B7E0012165CC287C286C2851212D6126C
:100063000F287F4B7E0012165C12167C12123B1275
:100073000FE97F4B7E0012165C120F8D1213217F46
:100083004B7E0012165C120DE6120D067F4B7E00AE
:1000930012165C120C0E120B127F4B7E0012165CB2
:1000A30012159E120D76120E547F4B7E0012165CB3
:1000B300120B90120C8A7F4B7E0012165C1205ED18
:1000C3001204D57F4B7E0012165C12159E1206ECAD
:1000D3001203B97F4B7E0012165C12159E1213B0E9
:1000E3001215651213B01215651215D61213F212FA
:1000F30015D61213F27F4B7E0012165C12136C128C
:1001030010F31212D6120F2812123B120FE9120F1C
:100113008D12132112136C1210F31212D6120F2820
:100123007F4B7E0012165C7F051212897F4B7E0087
:1001330012165CE4F5081211EA0508E508C39403F6
:1001430040F4E4F508120EC20508E508C394034021
:10015300F41215D61213F27F4B7E0012165C1211A5
:10016300EA1211EA1211EA1211EA1211EA120EC28C
:10017300120EC2120EC2120EC2120EC21215D612E5
:1001830013F21213B01215657F4B7E0012165C1228
:1001930011981214341214AE12147112119812140D
:1001A300341214AE1214717F4B7E0012165CC28798
:1001B300C286C28512136C1210F37F4B7E00121697
:1001C3005C1212D6120F287F4B7E0012165C12129D
:1001D3003B120FE97F4B7E0012165C120F8D121338
:1001E300217F4B7E0012165C7F0512128912167C4A
:1001F30012123B120FE97F4B7E0012165C120F8D19
:100203001213217F4B7E0012165C12136C1210F333
:100213007F4B7E0012165C1212D6120F287F4B7E84
:100223000012165C12167C1216331216337F4B7EA5
:100233000012165C12167C121044120A927F4B7E37
:100243000012165C12114612109E7F4B7E0012168E
:100253005C12167C1214EB1215281214EB121528DB
:1002630012136C1210F37F4B7E0012165C1212D61F
:10027300120F287F4B7E0012165C12087412098637
:100283007F4B7E0012165C1208FD120A0C7F4B7E18
:100293000012165C1211981214341214AE12147157
:1002A3001211A31214341214AE1214717F05121218
:1002B30089E4F509120EC2120EC2120EC2120EC248
:1002C3001211EA1211EA1211EA1211EA1213B01210
:1002D30015651215D61213F20509E509C3940240F8
:1002E300D312136C1210F37F4B7E0012165C1212A2
:1002F300D6120F281205ED7F4B7E0012165C1204F6
:10030300D57F4B7E0012165C1208FD120A0C1208F0
:10031300741209867F4B7E0012165C1206EC1203E0
:10032300B97F4B7E0012165C1215D61213F212150A
:10033300D61213F27F4B7E0012165C12136C12104E
:10034300F37F4B7E0012165C1212D6120F287F4BDE
:100353007E0012165C120DE6120D067F4B7E001214
:10036300165C120C0E120B127F4B7E0012165C12DF
:100373000D76120E547F4B7E0012165C120B9012F8
:100383000C8A7F4B7E0012165C1214EB1215281296
:1003930014EB1215281214EB1215281211981214CB
:1003A300341214AE1214711211A31214341214AEB7
:0603B300121471020003A8
:10165C00E4FDFCC3ED9FEC9E5015E4FBFA0BBB00C4
:0F166C00010AEB647B4A70F50DBD00010C80E4B0
:01167B00224C
:030000000207E80C
:0C07E800787FE4F6D8FD75811002082F20
:1007F400020003E493A3F8E493A34003F68001F218
:1008040008DFF48029E493A3F85407240CC8C33305
:10081400C4540F4420C8834004F456800146F6DFD4
:10082400E4800B0102040810204080901699E47EB5
:10083400019360BCA3FF543F30E509541FFEE493C9
:10084400A360010ECF54C025E060A840B8E493A390
:10085400FAE493A3F8E493A3C8C582C8CAC583CABB
:10086400F0A3C8C582C8CAC583CADFE9DEE780BE73
:01169F00004A
:00000001FF
